:020000022000DC
:1060000000000420C5C1020005C2020007C2020050
:1060100009C202000BC202000DC202000000000013
:1060200000000000000000000000000041C102006C
:1060300011C202000000000061C1020015C202008E
:106040004DC302002165020017C2020017C2020000
:1060500017C2020017C2020017C2020017C20200D4
:1060600017C2020017C2020017C2020017C20200C4
:1060700017C2020017C2020017C2020017C20200B4
:1060800017C20200CDBE020017C2020017C20200F2
:1060900017C2020017C2020017C2020017C2020094
:1060A00017C2020017C2020017C202008D79020057
:1060B00017C2020017C2020000000000000000002A
:1060C00017C2020017C2020017C2020017C2020064
:1060D00017C2020017C2020017C20200D99F0200B5
:1060E00017C2020017C2020017C20200000000001F
:1060F0000000000017C202000000000017C20200EA
:10610000000000000000000000000000000000008F
:10611000000000000000000000000000000000007F
:10612000000000000000000000000000000000006F
:10613000000000000000000000000000000000005F
:10614000000000000000000000000000000000004F
:10615000000000000000000000000000000000003F
:10616000000000000000000000000000000000002F
:10617000000000000000000000000000000000001F
:10618000000000000000000000000000000000000F
:1061900000000000000000000000000000000000FF
:1061A00000000000000000000000000000000000EF
:1061B00000000000000000000000000000000000DF
:1061C00000000000000000000000000000000000CF
:1061D00000000000000000000000000000000000BF
:1061E00000000000000000000000000000000000AF
:1061F000000000000000000000000000000000009F
:10620000F1EE103A43F08073E1EE103A704700BFB0
:1062100010B5054C237833B9044B13B10448AFF3E0
:1062200000800123237010BD546200200000000094
:10623000D809030008B5034B1BB103490348AFF36A
:10624000008008BD0000000058620020D80903004B
:10625000154B002B08BF134B9D46A3F5803A002138
:106260008B460F461348144A121A08F04FF80F4B8A
:10627000002B00D098470E4B002B00D098470020F1
:10628000002104000D000D48002802D00C48AFF397
:10629000008007F0D1FF2000290005F0E1FF07F0A2
:1062A000B7FF00BF0000080000000420000000004D
:1062B0000000000054620020E07D0020000000008B
:1062C00000000000F8B56C4A6C4E11786C4D00234C
:1062D000336029B16B492888B1F80940844270D0F5
:1062E000694B1A7892B1694A2988B2F80500884248
:1062F0000CD192E80300664C0022206121756548AC
:106300001A7004F1100101F0B5FA00E0604C6389E5
:1063100040F2E24000FB03F000B9002001F06AFB0C
:106320002B885C4801339BB22B8001F007FB5A4B52
:106330005A4A1D78C1B2117025B3594D59482D786C
:1063400000683060002D63D100284FD000221A7001
:106350006368554D226823F07F4301242C7001F0BF
:1063600055F8524B524A1C701378002B42D14FF013
:10637000A0434021C3F80C151378B3FA83F35B09EB
:106380001370F8BD4B48007800283ED130680028D3
:106390002CD0434D2D78002DD8D04749037809786B
:1063A000002947D043F00803444903700B78316853
:1063B000002B38D00B7843F004030B703068117851
:1063C000C6E71370304ECA780F79B1F80100304C2F
:1063D0003178208142EA0722628180B2002932D1DD
:1063E00040F2E24300FB033001F004FB304A137833
:1063F000002BBCD04FF0A0434021C3F80815137800
:10640000B3FA83F35B091370F8BD2D483060C0E721
:106410002C490D78052D10D80B780133DBB20B70A9
:106420000028BAD1E2E70B7823F004030B70306840
:1064300011788DE703F0F703B6E700250D701D70A6
:106440000028AAD1D2E7114A2988B2F8050088426B
:1064500009D192E80300206121750E48337004F1E0
:10646000100101F007FA238940F2E24003FB00002B
:1064700001F0C0FABAE700BF9F650020A4650020C4
:106480007465002094650020736500206C65002011
:1064900078650020BC620020A8650020B46500205B
:1064A0000D600020C8650020C4650020AD65002097
:1064B000006000200E600020BD650020BC6500204B
:1064C00008600020A9650020114B1B78C3B9114A50
:1064D0001378B3B14FF0A0434021C3F808150E491B
:1064E00013780878B3FA83F30130C0B25B091370F4
:1064F00027280A4B88BF25200870196800F0DEBEE7
:1065000070474FF0A0434021C3F80C15E7E700BFE8
:10651000C465002000600020B4650020B065002044
:10652000F8B5A74BD3F8002122B100210122C3F80E
:1065300000119A60A24BD3F80C21002A00F00381CD
:106540000024A04DC3F80C412A784AB19E4B2C7010
:106550001A78002A40F0F880BDE8F84000F0C4BF87
:1065600001229A60D3F80034002B00F0EC80974EA3
:106570003378002B00F010813378954C03F0FF0046
:10658000002B00F09480934923680F78924A13F807
:1065900007C01778BC4540F0A880012840F28780EA
:1065A0000F7892F801C01F447F78674540F09D80C6
:1065B00002287CD00F7892F802C01F44BF78BC45F7
:1065C00040F09380032872D00F7892F803C01F44E4
:1065D000FF78BC4540F08980042868D00F7892F895
:1065E00004C01F443F79BC457FD105285FD00F7898
:1065F00092F805C01F447F79BC4576D1062856D055
:106600000F7892F806C01F44BF79BC456DD10728AA
:106610004DD00F7892F807C01F44FF79BC4564D174
:10662000082844D00F7892F808C01F443F7ABC4530
:106630005BD109283BD00F7892F809C01F447F7ABC
:10664000BC4552D10A2832D00F7892F80AC01F44B4
:10665000BF7ABC4549D10B2829D00F7892F80BC0DE
:106660001F44FF7ABC4540D10C2820D00F7892F807
:106670000CC01F443F7BBC4537D10D2817D00F7885
:1066800092F80DC01F447F7BBC452ED10E280ED042
:106690000F7892F80EC01F44BF7BBC4525D10F2850
:1066A00005D00978D07B5A18D27B90421DD10121A8
:1066B00016200027377006F0D1F8484B4FF4B4503D
:1066C00043F001039847464B464A474947481B68F1
:1066D00012680978006801262E7000F097FE444A7F
:1066E0001378DBB2B3425AD023685A78911CFF2941
:1066F00029D833483F4ED0F80C04585423680B4433
:10670000050A5D7023683C4D19440932D2B2000C71
:10671000887032702B7883B1384B1B786BB123684B
:10672000374A1B781178C3F3800399420BD0354860
:1067300035491370002202700B702B78002B34D176
:10674000324B01221A70F8BD314D2B4A2E89314847
:106750001C7040F2E24106FB0111012301F5967124
:10676000137001F021F96B681D481E492A4A2E68F2
:106770000E60C3F31703036005F11001274814806E
:1067800000F0DAFE697D254801F01F0101F0CEF826
:10679000224801F0CFF8DFE60D4C2368A5E70A494F
:1067A00017700B7001F02CF99EE703F073FC1C4B83
:1067B000024600210D201A6006F050F8C0E700BF25
:1067C00000100040C4650020DE650020DC6500206C
:1067D000C0650020DD650020CC650020A005030019
:1067E000B8650020B0650020B4650020C8650020B1
:1067F000B5650020AC650020BE6500200D6000205E
:10680000BC650020A8650020BD650020AB650020A8
:1068100078650020C562020074650020BC6200201B
:10682000A06500202DE9F041DFF8BC815F4FD8F86A
:1068300000203B78147804F00F04002B68D15C4BE7
:106840001A78002A48D05B495B4A5C4D00263E70AE
:106850001E700E7016702E7001F0D2F8584859490B
:10686000594B016059485A4A18602523184613703D
:106870003E7000F023FD5749574801F095F801217B
:106880000D2005F0EBFF01210C2005F0E7FF0121B1
:10689000162005F0E3FF032C21D0052C3AD0D8F8C0
:1068A00000304E4C03F10801221D914203D203F146
:1068B0000C0294421FD3197B9A6821715B7B637130
:1068C0002260474A0224147006232B7000211620F0
:1068D000BDE8F04105F0C2BF032C384DDDD1D8F83A
:1068E00000303E4C03F10C029442E4D203F1080262
:1068F000211D8A42DFD21A7A22705A7A62709A7AFD
:10690000A270DA7AE2701A7B22715B7B6371D8E73E
:10691000274B98E701F074F8D8F80060DFF8CCE076
:106920002E4CB44677465CF80E0FDCF80820DCF8F5
:106930000C30DCF804100FC7DCF810003860BCF82D
:106940001430BB8006F10802231D9A4203D206F1DF
:106950000C039C421DD3327BB3682271727B62713F
:106960002360BEF80A301E490220062208702A70F1
:106970000BB9BDE8F0810F4B01221A7003F08AFBBE
:10698000184B024600211620BDE8F0411A6005F0C0
:1069900065BF337A2370737A6370B37AA370F37A26
:1069A000E370337B2371737B6371DAE7BE6500208C
:1069B000A8650020B5650020DE650020DC650020AC
:1069C000B0650020D6BE898EB865002055555500AB
:1069D000B465002090D00300C9640200CC6500209B
:1069E000DD650020A0650020C865002078650020D6
:1069F00038B501210C2005F0F1FE01210D2005F034
:106A0000EDFE0121162005F0E9FE01210C2005F024
:106A100025FF01210D2005F021FF0121162005F0A1
:106A20001DFF264C264D4FF0A043402203214FF47A
:106A30000020C3F84C17C3F80805C3F81817204600
:106A4000C3F808254FF4E131C3F8082501F01AF91D
:106A50000A21204600F0EAFF40F20B1007F010FC7C
:106A6000184B194C00F1090240F20B101A6007F0A4
:106A700007FC164B0930186000F0C2FF1448154996
:106A8000154B01600020154A187025231846137015
:106A9000256000F013FC1249124800F085FF012127
:106AA0000D2005F0DBFE01210C2005F0D7FE0121B1
:106AB0001620BDE8384005F0D1BE00BFE4650020D7
:106AC00055555500C0650020B8650020C8650020F8
:106AD000B0650020D6BE898EBE650020B46500205A
:106AE00090D00300C964020008B5044800F04CFFD0
:106AF000034B002283F8482008BD00BFBC62002081
:106B0000706200202DE9F04FAD4BD3F8002183B027
:106B100012B10022C3F80021AA4B1B7823B1AA4B63
:106B20001A78002A40F04F82A84B1A78002A40F0C9
:106B3000BE82A74F3B78002B40F02E83A54C94F8E3
:106B40004830002B4FD0A44D2B78002B4BD1A34EB7
:106B5000337803F0FF09002B45D1DFF8C0A2DFF83E
:106B60009C82DAF800002288A1690432043807F018
:106B7000A9FBA06907F08CFB94F8483003F1FF3CB7
:106B8000BCF1000F11DD00231946CA1D881D54F801
:106B9000222044F8202001334A1CDBB234F81220B2
:106BA00024F8112063451946EFDBDAF8003053F87A
:106BB000042C424500F0EC811A7802F00302032A0B
:106BC00000F0ED813B7823B1854B01222A7083F8D8
:106BD00000905FFA8CF384F8483023B12B7813B916
:106BE0003378002BBDD0DFF838827E4DDFF834A239
:106BF000DFF80892284600F0BBFFD0B1284600F02D
:106C0000D7FFC1B2AA2900F083811FDCA62900F0BA
:106C1000A48029DDA72900F00781A929EAD1012252
:106C20007149284600F004FF284600F0A1FF002823
:106C3000E4D198F8003023B1684C2378002B00F0A1
:106C4000C18240BF20BF03B0BDE8F08FB12954D04E
:106C500048DDB22900F09380CC29CBD101225949DB
:106C6000284600F0E5FEC5E76629C3D101220DF1F3
:106C70000501284600F0DCFE9DF8056098F800301C
:106C8000002E40F04B81002BB4D0544A4C4B88F876
:106C900000601670504AC3F80061C3F80C619E6032
:106CA000167000F0ADFE5149514B524AC1F80090A8
:106CB00051491960252351493E701846137000F060
:106CC000FDFA4F494F4800F06FFE01210D2005F0FD
:106CD000C5FD01210C2005F0C1FD0121162005F0A4
:106CE000BDFD87E7B02985D1284600F09BFF06222D
:106CF0004549284600F072FF7CE7444E364B384841
:106D000093F800C0337890F800E0414A6CF34103F7
:106D1000DBB21278DFF800C138789CF800C06EF35F
:106D200084033370DBB262F345133370DBB2DFF8F8
:106D3000E4E060F30003DBB29EF800206CF38613FE
:106D4000DBB262F3C7132846337000F06BFF3146A5
:106D50000122284600F042FF4CE701220DF1050117
:106D6000284600F065FE9DF80530C72B7FF442AF42
:106D70004FF0A0434FF40022C3F80C253AE76FF020
:106D8000004000F037FE23481349234A204BDFF828
:106D90005CB0002606703E700E7016701E7000F01B
:106DA0002FFEDFF84CC0134ADFF84CE013493E7069
:106DB00025231846CBF80090CCF800E013707EE74E
:106DC00000100040BF650020AD650020AB650020CD
:106DD000BE65002070620020A8650020C465002008
:106DE000A9650020E46500200E600020B065002049
:106DF000B8650020B465002055555500D6BE898E73
:106E000090D00300C9640200A8050300906500202B
:106E1000B5650020DC650020DE650020C865002027
:106E2000AA6500200D60002098F80030002B7FF448
:106E3000E1AE02220DF10601284600F0F9FDBDF891
:106E400006B0BBF5877FBFF4D5AE0BF1050007F0A8
:106E500017FA0BF1010201460646284600F0E8FD4C
:106E6000BDF806C0BCF1000F00F01E82ACF10E03AD
:106E70009BB247F6F172934200F20C8200210B465E
:106E80004FEA9C0B304650F8042B013102F07F3E54
:106E90005A4003F07F3302F0803273448B4583EA1B
:106EA0000203F0D8C3F307221A44C3F307410A448C
:106EB00002EB13632CF003026245D8B213B214D074
:106EC00091B2F35C01F1010E1FFA8EFE0344F4450A
:106ED000D8B20ADD16F80E30023189B203448C456F
:106EE000D8B202D9735C0344D8B216F80C3083428E
:106EF00040F08F8194F848300C2B00F292819A1D5B
:106F000024F813C0013344F8226084F8483071E655
:106F100001225146284600F08BFD6BE603F0FF0688
:106F2000002B7FF467AE00F06BFDDFF864C3C3484D
:106F3000C349C44BC44A4FF0010B88F800B08CF829
:106F400000603E7006700E701620314616701E707E
:106F500005F084FC31460C2005F080FC59460D20DC
:106F600005F07CFC5946042005F078FC94F8483084
:106F700053B1B31D013654F8230007F089F994F892
:106F80004830F6B2B342F4D8002384F8483031E6F2
:106F9000FFF748FC94F8483003F1FF3C19E69A7873
:106FA000002A00F02781012A7FF40CAE53F8030F6A
:106FB000A649DFF894E2086098889B798B718880F5
:106FC0008EF80020FEE5A249A24A0968101D00249F
:106FD00081421C7000F02D814A789F4B0932D2B259
:106FE000BB24002001F8082C01F8094C01F8070C1B
:106FF0001C8801F8064C1B881B0A01F8053C0E1F73
:1070000097B20939002A00F055817B1E052B40F20A
:107010004F8180464FEA970EB4465CF8043B08F077
:107020007F3503F07F34013088EA03032C4485B2B6
:1070300003F08033AE4584EA0308EED8C8F3072393
:10704000C8F307404344034407F0FC0003EB186314
:107050008742DBB220D0345C2344441CA742DBB21D
:107060001AD9345D2344841CA742DBB214D9345DA1
:107070002344C41CA742DBB20ED9345D2344041D53
:10708000A742DBB208D9345D053023448742DBB226
:1070900002D9305C0344DBB21644337006326F48C9
:1070A00000F09CFD6E4B1A78002A3FF442AD00249C
:1070B0006C4A1C706C4B12781968674B01F8074CCE
:1070C000D2B2A72001F8082C01F8090C188801F8A1
:1070D000060C1B8897B21B0A01F8053CA1F1040CB1
:1070E0000939002F00F0E2807B1E052B234640F279
:1070F000E3804FEA970E654655F8040B013400F023
:107100007F36584003F07F333344A6B200F080301E
:10711000B64583EA0003EFD8C3F307201844C3F34E
:107120000744204400EB136307F0FC008742DBB206
:1071300026D01CF800402344441CA742DBB21FD9D0
:107140001CF804402344841CA742DBB218D91CF865
:1071500004402344C41CA742DBB211D91CF80440EC
:107160002344041DA742DBB20AD91CF804400530B1
:1071700023448742DBB203D91CF800000344DBB28E
:1071800094443A4F8CF800300632344800F026FD23
:107190003B78002B3FF4D2AC02F07CFF344A354BF5
:1071A0001268DB89821A03EB8303B2EB430F7FF68D
:1071B000C5AC01210D2005F051FB00210C2005F08C
:1071C0004DFBBBE42C4D2D4E2D4B2E4A2E483060EE
:1071D0001B68126829780126267000F017F92B78B1
:1071E000262B8CBF252301332B7040BF20BF03B05B
:1071F000BDE8F08F53F8030F244A5968DFF840E0E8
:1072000003C219899B7A9370012311808EF8003094
:10721000D8E4304607F03CF8A821284600F002FDEB
:10722000E8E4304607F034F8A121284600F0FAFCE3
:10723000E0E4144B1B681360CEE600BFA865002095
:107240009F650020B5650020736500206C650020F7
:10725000A46500200460002074650020E46500201F
:10726000AB650020AC650020C0650020BE65002035
:10727000A065002078650020B4650020C865002066
:10728000B8650020B06500200860002094650020EB
:10729000C465002000231846F25C01331BB202448F
:1072A0009C45D0B2F8DC20E660461EE63B4668E727
:1072B0000346D0E61346F0E620463AE74E4BD3F8B5
:1072C000502570B4002A40F082804FF080430022A5
:1072D0000124C3F800211A461C60D2F80031002BAB
:1072E000FBD0454B04240022C3F80C45C3F82C25E1
:1072F000D3F83025032442F001022528C3F83025B5
:10730000C3F8104561D026285DD0272872D00A28FE
:10731000D4BF821CC21C5200D2B2374B374CC3F8C8
:1073200008250E0E0D024FF48472C3F85405C3F8FD
:107330002465C3F81C55C3F81425C3F81845D3F8C1
:1073400050462F4A2F4D304844F00104C3F85046B0
:1073500040F25B64C3F8384540F20314C3F8344587
:107360001468C3F83C55251F156004F8041C146804
:10737000C1F3072565701468C1F30745A57014684B
:10738000C1F30761E17011680431116008256024C0
:107390000222C3F80415C3F8045380F80143C0F86F
:1073A0008021026000220121C3F800211A465960A1
:1073B000D2F80031002BFBD000210123C2F80C11C0
:1073C00070BC936070471A22A7E70222A5E70E4A15
:1073D0000224C2F88040BFF34F8FBFF36F8F0022AB
:1073E0000124C3F810211A461C61D2F81031002B79
:1073F000FBD06AE7502290E700100040FB00030238
:10740000C06500205555550000E100E0F0B4334C54
:107410000025C4F80052D4F85065002E47D12F4CF7
:107420002F4DC4F804050220C5F880012860042609
:1074300000252529C4F80C65C4F8445549D02629EF
:1074400033D0272947D00A29D4BF0818C81C4000C8
:10745000C5B22248234CC0F80855C0F8541521681D
:107460000325C0F800520D1F256001F8042C216887
:10747000C2F307254D702168C2F307458D7021685E
:10748000C2F30765CD70216804312160160E002516
:1074900012020121C0F82465C0F81C25C0F83C3553
:1074A000C0F800510160F0BC70471A25D1E70C4EBE
:1074B0000227C6F88070BFF34F8FBFF36F8F01268E
:1074C000C4F8105125462661D5F81041002CFBD098
:1074D000A5E70546BDE75025BBE700BF001000400B
:1074E00000E100E0C06500201049114B0968114A15
:1074F000C3F804150221C2F88010BFF34F8FBFF309
:107500006F8F0120C3F80002C2F8801111600022C1
:10751000C3F810211A461861D2F81031002BFBD0A5
:1075200000210123C2F8001153607047C06500209C
:107530000010004000E100E02DE9F04F00248BB086
:10754000CDE9074400F5F07305931D460994E31057
:1075500004F00702CB5C0134134103F00103252C36
:1075600005F8013FF3D10B46DE432531002513F822
:10757000012B012A04D14219F41882F8BC410135CB
:107580008B42F4D1B94FC0F89C5200F2E11C00F1DB
:1075900025050526A5F12501002319E0D0F89C4218
:1075A00093FBF4F204FB1232024492F8BC210A70FD
:1075B000F21887FB02431344D417C4EB631303EBA5
:1075C000C304013103EB8403A942A2EB030306D0F9
:1075D000C21892F8E121012AE0D10B70E8E701F12D
:1075E0002505654506F10106D4D1A14BDFF87CB233
:1075F00003901B1A029300F205230193059B00934D
:1076000004E0DDE90032934200F02B81029AD518A4
:107610001A4612F8013F0092012BF2D1039B059FFD
:1076200003F124000026A0F12503002402E0134604
:1076300083420ED05978A94203F10102F7D13CB937
:10764000824206D013F8022FAA4201D00124EFE7AC
:1076500001262530B842E6D1002ED2D1039BDDF8B9
:107660001490C3F8A05202E0019B9945C9D0029B37
:1076700003EB090719F8013F012BF5D1039B0DF12D
:107680001C0CE246CDF810C003F1FF384FF0000E9D
:107690009C464346002003E00130252800F0DE80B0
:1076A00013F8012FAA42F7D10EEBCE040EEB84049F
:1076B0006444014600F1250602E0B14200F0CB80AF
:1076C0008BFB01230B44CA17C2EB631303EBC3020A
:1076D00003EB8203CB1A0131E25CBA42EDD198424E
:1076E000A3EB000280F2B8800EF1010EBEF10C0F88
:1076F0000AF8012B08F12508CBD1DDF810C09DF860
:107700002760022400219CF800301CF8012F9A42C7
:1077100008BF01210C2C41D09CF801209A4208BFDF
:1077200001210B2C3AD09CF802209A4208BF01217B
:107730000A2C33D09CF803209A4208BF0121092C5F
:107740002CD09CF804209A4208BF0121082C25D097
:107750009CF805209A4208BF0121072C1ED09CF8F6
:1077600006209A4208BF0121062C17D09CF807205A
:107770009A4208BF0121052C10D09CF808209A429B
:1077800008BF0121042C09D09CF809209A4208BFA7
:107790000121032C02D0B34208BF012101340D2C7A
:1077A000B1D100297FF460AF039894220546C0F858
:1077B000A47200F5027006F0A9FD9DF81CE09DF88A
:1077C0001D009DF81E109DF81F209DF820709DF84B
:1077D000213006F1820C0EF1820682304FF0050E48
:1077E00045F826E08231062645F82060823282374D
:1077F0009DF822609DF823004FF0070E45F821E028
:10780000823308214FF0090E45F82210823645F8E0
:1078100027E09DF824109DF825200A2745F82370BD
:1078200082309DF826300B2745F82670823182324F
:107830000C2645F8206082330E2045F8214045F89B
:1078400022000F241021012045F8234045F82C1078
:107850000BB0BDE8F08FC243253245E74FF0FF3053
:1078600022E700200BB0BDE8F08F00BFA7C867DD9E
:1078700020FEFFFF30B400252B46DC1003F007028A
:107880000C5D44FA02F2D20703D54219013582F8A1
:10789000BC310133252BF0D100F2E1120B1D9A42CD
:1078A000C0F89C5203D200F2E513994232D30B7810
:1078B00080F8E1314B7880F8E2318B7880F8E33161
:1078C000D1F80330C0F8E431D1F80730C0F8E8311E
:1078D000D1F80B30C0F8EC31D1F80F30C0F8F031EE
:1078E000D1F81330C0F8F431D1F81730C0F8F831BE
:1078F000D1F81B30C0F8FC31D1F81F30C0F800328D
:1079000091F8233080F8043291F8243080F8053261
:1079100030BC70474B1E00F5F070243113F8012F76
:1079200000F8012F8B42F9D130BC7047C0F8A81283
:10793000704700BF0023C0F8AC327047D0F8A812DF
:10794000D0F8AC220F4B0A4483FB02139918D317CB
:10795000C3EB611303EBC30103EB8103D31AC2181A
:10796000C0F8AC3292F8E121012A08D0D0F89C127C
:1079700093FBF1F201FB1233184490F8BC31184626
:10798000704700BFA7C867DD704700BF044B054ABA
:107990001B680021C2F8401103B11847704700BFAF
:1079A000E065002000B001400F4A104B30B4104C8D
:1079B00010604FF000600322C4F880014FF480355E
:1079C000C3F80825C3F8401501220421C3F8045365
:1079D000C3F80022C3F810152060602184F81B133F
:1079E00030BCDA601A607047E065002000B00140EA
:1079F00000E100E0014BC3F84005704700B00140D2
:107A0000084B4FF00062C3F88020BFF34F8FBFF3E5
:107A10006F8F054B01220021C3F84011DA605A60D4
:107A2000704700BF00E100E000B001408160704796
:107A3000F8B51746E2B104460E46002502F02AFBCF
:107A4000E06008E004F0D6FD02F024FBD4E9022354
:107A5000C01A90420AD2236820461B699847002822
:107A6000F0DB0135AF4206F8010BE7D12846F8BD3F
:107A70001546FBE770B592B01D460C46164601A8A8
:107A80004222002106F042FC412D02D8002012B013
:107A900070BD621CD2B202238DF806408DF80E40F4
:107AA0008DF826408DF81E208DF827208DF8312086
:107AB00040F20945052240F201248DF807308DF887
:107AC00008308DF809308DF812308DF821308DF89E
:107AD00022308DF833308DF83B30ADF80C50242334
:107AE000ADF810408DF815208DF823201B4D8DF832
:107AF0001630042201248DF820308DF824300695AC
:107B00008DF81C408DF81F208DF830203046144D24
:107B10000A9540F6083608234FF411640A22ADF89E
:107B200004608DF82C30ADF82E4040238DF83420C1
:107B300001A9062640F207550A4C8DF8256042221D
:107B4000ADF838508DF83C308DF84330CDF83F40DB
:107B500006F0B8FB422012B070BD00BF2001052422
:107B60000705800307058002A0F11000FFF782BF20
:107B700000B5002083B000F0D3F818B9019004F0EC
:107B800039FD019803B05DF804FB00BF00B500218A
:107B900083B008460DF1070200F0F2F820B19DF81D
:107BA000070003B05DF804FB4FF0FF30F9E700BFBA
:107BB00000B583B001220DF10701002000F0BAF8F2
:107BC00020B19DF8070003B05DF804FB4FF0FF30D3
:107BD000F9E700BF002000F0EFB800BF70B516460F
:107BE00062B100200D46144600F074F82946224682
:107BF00080B1002000F0D2F8241A01D1304670BDC7
:107C0000054404F0F7FC002000F064F82946224601
:107C10000028EED1361B304670BD00BF002000F0BA
:107C200003B900BF30B50368154A5B6883B093425F
:107C30008DF807101ED1002000F04CF80DF107055B
:107C400001242946224688B1002000F0A7F8241A12
:107C500002D1012003B030BD054404F0CBFC00206C
:107C600000F038F8294622460028EDD1C4F1010081
:107C700003B030BD01220DF10701984703B030BDBC
:107C8000DD7B0200704700BF01B1704700B583B0D3
:107C90000846694600F034F8009BB3F5966F02D0B1
:107CA00003B05DF804FB02F0ADF9F9E7074A084BB1
:107CB00010B4002002F108044FF47A7130321C60D5
:107CC0001A61C3E901015DF8044B7047B005030078
:107CD000E465002010B5044600F016FC08B9002049
:107CE00010BD00F019FC0028F9D1044B4FF4567276
:107CF00002FB0434207900F0010010BDF86500207B
:107D0000064A4FF4567303FB002050F8063F0B6001
:107D1000838882798A718B80704700BFF865002064
:107D2000034A4FF4567303FB0020408B704700BF9B
:107D3000F8650020F8B54FF45674104E04FB00F4BB
:107D400004F1100092B2304400F052FA351907469F
:107D5000E978002001F0FEF828B96A8BAB8A9B1AFB
:107D60009BB23F2B01D83846F8BD04F53672324439
:107D7000E978402301F0CEF83846F8BDF8650020D8
:107D800010B4054C4FF4567303FB004089B2103019
:107D90005DF8044B00F09EBAF865002010B5054C64
:107DA0004FF4567303FB004092B2243000F0F4FA13
:107DB00010BD00BFF8650020F8B54FF45674184D9B
:107DC00004FB00F42E190020B17801F0C3F808B1CB
:107DD0000020F8BD04F5467704F124002F44284420
:107DE0003946402200F004FA044608B92046F8BD9E
:107DF00000F08AFB0028EBD000F08EFB0028E7D1D2
:107E00003379DB07E4D53A46B178234601F082F8AE
:107E10000028EBD1034B1B68DA07D9D500BEF8BDAB
:107E2000F8650020F0ED00E0044A4FF4567303FBC0
:107E30000020C38D008DC01A80B27047F865002005
:107E4000F0B51A4C83B000214FF45672204601253C
:107E50000E4606F05BFAFF234FF4424204F138016C
:107E60006371E2802B460827009604F110004FF45E
:107E700080722773258100F08DF92B464FF48072B4
:107E800004F59C71009604F1240000F083F904F5D8
:107E90000E71284602F070FB04F52271206228461C
:107EA00002F06AFB606303B0F0BD00BFF86500201C
:107EB00010B5074C002304F110002360237100F07B
:107EC00009FB04F12400BDE8104000F003BB00BF33
:107ED000F86500202DE9F0414B79022B82B004D0E7
:107EE0000025284602B0BDE8F0818B79022BF7D13E
:107EF000CB79062BF4D82D4EB3782BB12C4B1B68C5
:107F0000DB07EDD500BEEBE78B7833700C780C44C3
:107F100007466378242B4FF009050BD1082A02D8B5
:107F20000FE0AA420DD323781C441D446378242B10
:107F3000ADB2F6D0052B16D0042B02D163790A2BF3
:107F40001FD0F178002001F005F80028C9D1728B0C
:107F5000B38A9B1A9BB23F2BC3D9F178154A4023B1
:107F600000F0D8FFBDE72146384600F0D1FF0028D9
:107F7000C4D0A378737023781C441D44ADB26378D9
:107F8000DAE70D4A94F80080019202230132009250
:107F9000384604EB08011A4600F04EFF0028ADD029
:107FA0000E3518FA85F5ADB2CBE700BFF8650020B5
:107FB000F0ED00E0D0680020FA65002008B50B78ED
:107FC00003F06003202B01D0002008BD094B8A88F4
:107FD00018789042F8D14A78202A01D0012008BDB3
:107FE000054A002AFAD0991D0020AFF30080012035
:107FF00008BD00BFF86500200000000038B50B7810
:1080000003F06003202B01D0002038BD114A8B887B
:1080100015789D42F8D14B78202BF5D3212B05D82C
:108020000632072300F0E4FF012038BD222BEBD1FC
:108030004C88147100F0C4FF074B43B1C4F34002F5
:1080400004F001010020FFF71FFE012038BD0120D0
:1080500038BD00BFF8650020897C02002DE9F84397
:10806000464CE2788A420F461E4654D1A3B1444B97
:1080700004F5367505EB060904F1100843B32946EB
:10808000404600F051F96379FF2B02D029789942DC
:108090002DD00135A945F2D13A4B1BB1638B9BB270
:1080A000002B67D1E178002000F054FF50B9628BBB
:1080B000A38A9B1A9BB23F2B04D94023324AE17812
:1080C00000F028FFA3789F4215D00120BDE8F88377
:1080D00029464046013500F027F94D45DCD02946B8
:1080E0004046013500F020F94D45F1D1D4E700209C
:1080F000AFF30080CDE73946002000F02BFFB0B190
:10810000002EE2D016F03F03DFD1A1781A461846C0
:1081100000F000FFD9E7A3788B42ECD01B4B186826
:1081200010F00100D2D000BE0020BDE8F88318494D
:108130004022A1F53D7000F05BF805460028DFD035
:1081400000F0E2F90028DBD000F0E6F90028D7D1F2
:108150002379DB07D4D52B460D4AA17800F0DAFE4F
:108160000028B2D1094B1B68DA07C9D500BE002E22
:10817000C8D1AAE70020AFF3008093E7F86500209C
:108180000000000000000000D0680020F0ED00E0DA
:10819000106900202DE9F84305699DF82080DDB1C4
:1081A0000446894628464FF0FF311E46174602F026
:1081B00025FC2069C4F8009000236381A780A38177
:1081C000E68084F80880E38118B11A46194601F068
:1081D000F9FF0120BDE8F883458101608581828037
:1081E000C38080F80880C5810120BDE8F88300BF06
:1081F0002DE9F0414589ADB2002D52D00446006909
:1082000015460F4618B14FF0FF3102F0F7FB6389B6
:10821000A6882168B4F806C09D4288BF6589E389B5
:1082200088BFADB22B44B3423EDDE289E389B61A82
:10823000B6B20CFB03110CFB06F2384606F042F80E
:10824000E389A288216833449BB2934224BF9B1ADE
:108250009BB2E3816389E2889B1B9BB26381B4F884
:108260000EC0AB1B1FFA83F806FB027002FB0C1159
:1082700002FB08F206F026F8E389A28843449BB289
:10828000934224BF9B1A9BB2E3816389A3EB08034B
:108290009BB26381206920B100231A46194601F080
:1082A00091FF2846BDE8F081E3890CFB05F20CFB49
:1082B0000311384606F006F8E389A2882B449BB2E6
:1082C000934224BF9B1A9BB2E38163895B1B9BB2E1
:1082D0006381DFE74389994224D270B5054600697E
:1082E00016460C4618B14FF0FF3102F087FBE989C2
:1082F000AB88EA88214489B2994228BFC91A2B6801
:1083000028BF89B2304602FB013105F0DBFF286946
:1083100030B100231A46194601F054FF012070BD08
:10832000012070BD0020704738B5828843899A4289
:10833000044629D020690D4618B14FF0FF3102F0F4
:108340005DFBE2882368A089294602FB003005F026
:10835000B9FFA389A28801339BB2934224BF9B1A21
:108360009BB2A38163899A4212D0638901339BB285
:108370006381206930B100231A46194601F022FFBB
:10838000012038BD012038BD007A0028D2D138BD87
:10839000A3899BB2E381ECE72DE9F0411546002A61
:1083A00033D0044600690F4618B14FF0FF3102F098
:1083B00025FB227AA388B4F806C04ABB62899A1AC0
:1083C00092B2954228BF15462A46A18920681144D9
:1083D00099422EDCA3890CFB02F20CFB0300394608
:1083E00005F070FFA389A2882B449BB2934224BF5F
:1083F0009B1A9BB2A38163899A4262D063892069E8
:108400002B449BB26381002853D12846BDE8F081FC
:108410009D422A46D9D90021A181E1816181EA1AD0
:10842000A18920680CFB02771A46114499421D4627
:10843000D0DDA689A1899B1B9EB20CFB06F20CFB2A
:108440000100394605F03EFFA389A28833449BB260
:10845000934224BF9B1A9BB2A38163899A4234D072
:10846000638933449BB26381E0882368B4F80CC00D
:10847000A5EB06081FFA88F800FB08F206FB00715E
:1084800000FB0C3005F01EFFA389A28843449BB279
:10849000934224BF9B1A9BB2A38163899A4210D056
:1084A000638998441FFA88F8A4F80A802069002894
:1084B000ABD000231A46194601F084FE2846BDE8D9
:1084C000F081A3899BB2E381F0E7A3899BB2E381AA
:1084D000CAE700BF036993B110B504464FF0FF31FE
:1084E000184602F08BFA206900236381A381E3819F
:1084F00018B11A46194601F065FE012010BD4381EE
:108500008381C38101207047024B1878C0F380003B
:10851000704700BF50690020024B1878C0F3C000BC
:10852000704700BF5069002030B5322283B000216F
:10853000154805F0EBFE15490B4600244A6833F850
:10854000080B4988009401F0CBFD114B186080B1F5
:10855000104C04F18C0554F81C3B9847AC42FAD1FE
:10856000002000F087FE002000F086FE012003B00E
:1085700030BD094B1B6813F0010302D000BE03B0ED
:1085800030BD184603B030BD506900201060002097
:1085900084690020E4050300F0ED00E02DE9F04FD0
:1085A0008BB001F0D9FC002800F01F81BB4CDFF834
:1085B0000483DFF80CB381464FF0FF3207A920682F
:1085C00002F08AF8002800F010819DF81D30013B70
:1085D000072B00F20D81DFE813F0E000BB00AF00D5
:1085E000A4009D0031000E000800089B002BE3D082
:1085F00009989847E0E79DF82010A94B01F07F000B
:1086000003EB400303EBD11393F822206FF3000236
:1086100083F82220002800F007819D7C042D00F2C1
:10862000DF80A04E099B9DF821209DF81C00C5EB22
:10863000C50506EB85056D69A847BDE7984D9DF812
:108640001CA02B78002043F001032B7000F03AFDB2
:108650009DF8206006F06000602800F0DE80402871
:1086600000F00A8106F01F06012E00F02B81C0F0F9
:10867000E380022E40F0D1809DF8241001F07F07A6
:10868000072F00F2CA807B000093CA09EB1813443D
:108690009F7C002840F031829DF82100012800F0E5
:1086A0003182C0F03C81032840F0B780BDF8223011
:1086B000002B00F03E8208A9504600F081FCFF2FFD
:1086C00000F03C814D46042F00F2A780754EC7EBA9
:1086D000C70306EB8306306900F0F4FCF3685046EC
:1086E00008A99847002840F029819DF8203013F010
:1086F000600F01D100F0E6FC002D7FF45DAF9DF826
:108700001C00002100F022FF80219DF81C0000F0D9
:108710001DFF51E7BBF1000F3FF44EAFAFF30080F8
:108720004AE7614B002B3FF447AF5D4B1878C0F32D
:108730000010AFF300803FE75A4D05F18C06AB699E
:108740001C3513B19DF81C009847AE42F7D133E7B2
:108750003222002152489DF81C60524D05F0D6FD92
:10876000524A4FF0FF3353619361D36113605360FA
:108770009360D360136100F09BFC05F18C076B687C
:1087800030461C3503B19847AF42F8D1484B002B17
:108790003FF412AFAFF300800EE7322200214048D1
:1087A0009DF81C603F4D05F0B1FD404A4FF0FF338E
:1087B00053619361D361136053609360D36013611D
:1087C00000F076FC05F18C076B6830461C3503B170
:1087D0009847AF42F8D1324B9DF820205A70EBE613
:1087E000344B1B68D90700D500BE0BB0BDE8F08F35
:1087F000D8F80030DA077FF5DFAE00BEDCE6501EA9
:10880000C0B204F08FF918B14378022B00F0B781A1
:10881000D8F80030DB0700D500BED8F80030D80704
:108820007FF56DAF00BE6AE7099B9DF821209DF89A
:108830001C0000F05DFCBFE6202800F04481002809
:10884000EBD19DF82130092BE7D801A252F823F093
:108850001F8A0200038A02001B8802003F8A02006E
:108860001B880200E9890200958902001B8802002A
:108870007D890200518902000F4B002B3FF43FAF6E
:108880000E4808B100F01EFC504608A9AFF3008066
:108890000546002D7FF490AE31E700BF84690020CB
:1088A00050690020E4050300000000005269002028
:1088B00000000000F0ED00E00000000000000000FB
:1088C000000000009DF824300F2B3FF618AF2B441A
:1088D0009B78042B3FF613AFC54DC3EBC30305EBE9
:1088E0008305286900F0EEFBEB6808A9504698471D
:1088F00000287FF461AE9DF8203013F060017FF412
:10890000FEAE9DF821300A2B7FF4F9AE0AAA334659
:1089100002F80E1D504608A900F06AFB4CE6203311
:108920000AAA9B78C3F3400322F80E3D08A93346F8
:10893000504600F05DFBFF2F7FF4C4AE9DF8203061
:1089400013F0600F7FF438AE002000F0BBFB33E67D
:108950002B789DF8222001925E0702D4002A7FF432
:108960004EAF019B2A78003318BF012363F38202C4
:10897000504608A92A7000F023FB1DE62B780AAAAE
:10898000C3F3800302F80E3D5046012308A900F00E
:108990002FFB11E6BDF82200030A013BC0B20E2BEB
:1089A0003FF6ADAE01A252F823F000BF918A02005B
:1089B000A98A0200818A0200FF860200FF86020067
:1089C0005B8A0200FF860200FF860200FF8602002B
:1089D000FF860200FF860200FF860200FF8602007B
:1089E000FF8602005D8B020008A800F071FB504674
:1089F0009DF8221000F046FC2B7843F002032B7008
:108A0000DAE5BDF82230012B7FF479AE2B785046A1
:108A10006FF3041308A92B7000F0D2FACCE52B7881
:108A2000D90801F002010AAAC3F380130B4322F80C
:108A30000E3D5046022308A900F0DAFABCE5BDF865
:108A40002230012B7FF45BAE2B78504643F01003AD
:108A500008A92B7000F0B4FAAEE5664B002B3FF48A
:108A60004EAEAFF30080024600283FF4D6AE50462B
:108A7000137808A900F0BCFA00287FF49DAD3EE60B
:108A8000BDF8241004F054F802460028EFD136E671
:108A900004F044F81223024608A9504600F0A8FA50
:108AA00000287FF489AD2AE604F03CF8024600284D
:108AB0003FF4B3AE5046538808A900F099FA002855
:108AC0007FF47AAD1BE69DF824300F2B3FF617AEEE
:108AD0002B449B78042B3FF612AE454DC3EBC303EA
:108AE00005EB8305286900F0EDFAEB68504608A90C
:108AF000984700287FF460AD01E6FF2F3FF4FFADFB
:108B00000025E0E5BDF82250002D7FF4D4AD50469D
:108B1000009300F02BFD009B93F8222065F34102A7
:108B200083F8222093F8222065F3000283F82220A4
:108B3000C1E55046019200F009FD009B019A2B44CB
:108B4000134493F8222042F0020283F8222093F883
:108B5000222042F0010283F82220ACE5264B002BB4
:108B60003FF4CDADAFF30080034602465B8850462C
:108B700008A900F03DFA00287FF41EADBFE5C279D8
:108B80002B78511161F34513921162F386132B7008
:108B9000438800F10907C3189F42029369D2CDF8B8
:108BA0000090CDF814A07A780B2A1BD04FF0000962
:108BB000042A14D1029BDFF838A0DE1BB3B2039362
:108BC0000026DAF80830039A059839469847F3B238
:108BD0000AF11C0A049388B90136052EF1D1DDF89B
:108BE000009015E63B783B44B9465A781F46DFE7CC
:108BF000E405030000000000000000000828034610
:108C0000EDD9039A8242EAD3BA78A9188878FF2866
:108C1000E5D19DF810008870B9F1000F16D099F8D1
:108C200002109142DBD199F804007A799042D6D1B2
:108C300099F80320012A09D9023A0331D2B26818FF
:108C400001323146039305F061FB039B3946002254
:108C50004878052814D00878024492B2934201441F
:108C6000F6D81F44029BBB429DD8DDF80090DDF88A
:108C700014A00C4B002B3FF474AEAFF3008070E6F1
:108C80008E7806F07F0005EB400000EBD6109DF8D3
:108C9000106086740878024492B29A420144D7D395
:108CA000DFE700BF0000000030B585B000248D1E56
:108CB0008DF805108DF80400CDF80A40CDF8064077
:108CC000ADF80E40032D03D8DFE805F038152B175B
:108CD000254B1868EAB100236A4601A901F082FC1D
:108CE000009B43B1214B4FF080525A6040BFBFF30D
:108CF0004F8FBFF36F8F05B030BD1D4B1978C9077B
:108D0000F9D5197818486FF3C30119700068002A63
:108D1000E1D1134601A94FF0FF3201F053FA05B03B
:108D200030BD134B1978C807E5D519780E4841F0C6
:108D3000080119700068002ACDD1EAE70C490A48F9
:108D40000B7800686FF300030B700B786FF341032F
:108D50000B700B786FF382030B700B786FF3C30308
:108D60000B70002AB7D1D4E78469002000ED00E041
:108D70005069002030B50B4685B049688DF8040075
:108D80001868114D02AC03C4002306212868ADF811
:108D900006308DF8051082B16A4601A901F022FC67
:108DA000009B43B1094B4FF080525A6040BFBFF364
:108DB0004F8FBFF36F8F05B030BD134601A94FF041
:108DC000FF3201F0FFF9F6E78469002000ED00E0D2
:108DD00070B584B0164E9DF82040039207250022FE
:108DE000CDF806208DF80400ADF80A208DF80810A3
:108DF0008DF8093030688DF805508CB1134601A903
:108E00006A4601F0EFFB009B43B10A4B4FF08052E2
:108E10005A6040BFBFF34F8FBFF36F8F04B070BD78
:108E200023464FF0FF3201A901F0CCF9F6E700BF6D
:108E30008469002000ED00E02DE9F047DDE90889B4
:108E4000002A35D016464A78052A0C462AD1CD7814
:108E500005F00305AB4225D107464FF0000A14E0A8
:108E6000A378DA0914BF89F8003088F80030237835
:108E70000AF1010AB2451C441AD06378052B11D1BE
:108E8000E37803F00303AB420CD12146384600F0EF
:108E90000BFA0028E4D1094B1B68DB070BD4002038
:108EA000BDE8F087054B1B68DA07F8D500BEF6E78A
:108EB0000120BDE8F08700BEBDE8F087F0ED00E0DE
:108EC00030B5114D85B00023082402900193039121
:108ED00028688DF8054082B16A4601A901F082FB3D
:108EE000009B43B1094B4FF080525A6040BFBFF323
:108EF0004F8FBFF36F8F05B030BD134601A94FF000
:108F0000FF3201F05FF9F6E78469002000ED00E030
:108F100000F0CAB970B50D4C01F07F0604EB4604B1
:108F200004EBD11494F8225045F0010584F8225046
:108F300000F0F0F948B92034A378054A60F3000343
:108F4000A3701368DB0700D500BE70BD5069002018
:108F5000F0ED00E0054B01F07F0203EB420303EB71
:108F6000D11191F8220000F00100704750690020F3
:108F700010B50C4600F0EAFA094904F07F0301EB52
:108F8000430101EBD41191F8223043F0020381F840
:108F9000223091F8223043F0010381F8223010BDD5
:108FA00050690020054B01F07F0203EB420303EB05
:108FB000D11191F82200C0F34000704750690020A1
:108FC0000A4630B4094C496805461068234603C375
:108FD0000023C4E9023392F900209A422846ACBF2C
:108FE000802119461A4630BC00F094B9486A002026
:108FF000F0B50E462B4C496807463068A2602546FE
:1090000003C50021E181F588AB4228BF2B4683B020
:10901000A381ADB13BB3002A3DD094F90000402BB1
:1090200028BF402300282CDB1F4A384600F072F985
:1090300098B91E4B1B68DB0712D500BE03B0F0BD0C
:1090400096F90030002BACBF8021002138462B461A
:109050002A4600F05FF90028EBD0012003B0F0BDF4
:10906000002003B0F0BD94F90020002AACBF1946DF
:1090700080211A46384600F04DF90028D9D0012049
:10908000ECE71146084801931A4605F01BF9064A19
:10909000019B8021EEE7054B1B68D907E0D500BE98
:1090A0001046CBE7486A00205C6A0020F0ED00E043
:1090B000034B0022C3E90022C3E902221A61704770
:1090C000486A0020014B1861704700BF486A0020C1
:1090D0000346064A5968006810B41346002403C3C7
:1090E000C2E902445DF8044B704700BF486A0020A3
:1090F00070B53F4C2278C909B1EBD21F82B01AD0AB
:1091000033B13C4B1B68DA0749D4002002B070BD74
:10911000394B6BB12146AFF30080012002B070BD26
:109120000146304600F012FA3046802100F00EFA77
:10913000012002B070BD94F90020002A0646A06804
:1091400008DB0028E1D01A462C49019305F0BAF853
:10915000A068019BE589E2881D44ADB21844AA428B
:10916000A060E58101D03F2B1BD8236923B12049A2
:10917000304698470028D3D094F9002000239A4223
:10918000ACBF8021194630461A4600F0C3F80028CB
:10919000CED1184B1B68DB07B7D500BEB6E700BEC3
:1091A000B3E7A28994F90010531B9BB2402B28BF50
:1091B000402300290ADB95424FF0000112D00F4AEC
:1091C000304600F0A7F80028E3D0B1E795420BD075
:1091D00001461A460948019305F074F88021074AB0
:1091E000019BEDE70A46EBE780210022E8E700BF9C
:1091F000486A0020F0ED00E0000000005C6A0020FA
:1092000042DF704743DF704744DF704712DF70472B
:10921000144A92F8C0307BB1134B5B68C3F3080368
:10922000D3B9EFF31083A3B9104B5B681B0610D5BD
:1092300092F8C030002BFBD192F8C0300133DBB282
:10924000012182F8C0300160BFF36F8FBFF34F8FF1
:10925000704792F8C030EFE7014601220448FFF75B
:109260002FBE00BF9C6A002000ED00E000E100E09E
:1092700011920200704700BF014B80225A60704774
:1092800000E100E0074BD3F80014D3F800240020DD
:109290000A434FF48001C3F80024C3F85801C3F80F
:1092A000041370470070024030B48A780D79174873
:1092B00002F07F03D209540003EB43011444C900B8
:1092C00001EB8401014401200D7200FA03F18AB11F
:1092D0000F4A023300FA03F3C2F80433D2F8103510
:1092E0000B43C2F81035BFF36F8FBFF34F8F0120D0
:1092F00030BC7047064A0C3300FA03F3C2F804335B
:10930000D2F814350B43C2F81435ECE79C6A002000
:1093100000700240F0B501F07F04C80966000F46F6
:109320004FEA400C31198444804DC90001EB8C0197
:1093300005EB010C6A50002283B0ACF80430ACF8A5
:10934000062004B9BBB100284FD13319DB00EA185D
:10935000527A002A40F09280002C00F08B8004F5B5
:109360009474734B43F82400BFF36F8FBFF34F8F98
:10937000012003B0F0BD6E4BD3F88034C3F3C013AB
:109380009842E0D095F8C0307BB16A4B5B68C3F37C
:109390000803002B40F0BE80EFF310831BB9664B2F
:1093A0005B6818065DD495F8C03095F8C030634A04
:1093B0000133DBB2012185F8C0301160BFF36F8F3C
:1093C000BFF34F8F95F8C0302BB195F8C030013BFB
:1093D000DBB285F8C0300023394600931A461846A0
:1093E000FFF7F6FC012003B0F0BD264405EBC606EE
:1093F00004EB8402708A338A317D1B1A92009BB27F
:1094000002F1804202F51C328B4228BF0B46F16804
:10941000C2F80016C2F8043695F8C000484A0B445A
:1094200024B2F36002EB840188B1424B5B68C3F362
:109430000803002B74D1EFF31083002B5DD13E4B5A
:109440005B681B0659D595F8C030002BFBD195F809
:10945000C0300133DBB2012185F8C03042F824105E
:1094600082E795F8C030002B9FD095F8C030002BD4
:10947000F7D19AE72E4B0122DA6475E72C4A55F8AA
:1094800003C0304804F5947104EB840352F8217052
:1094900002EB8303FFB2C3F800C7C3F8047795F863
:1094A000C03022B200EB82016BB1224B5B68C3F388
:1094B000080353BBEFF310831BB91F4B5B681906FE
:1094C0001ED495F8C03095F8C0300133DBB20121CD
:1094D00085F8C03040F82210BFF36F8FBFF34F8F75
:1094E0003444E40029192A59CB883B449BB21744E1
:1094F00001202F51CB8003B0F0BD95F8C030A6E716
:1095000095F8C030002BFBD1DDE701220E48FFF7B4
:10951000D7FCE5E7012209490B48FFF7D1FC51E7E9
:1095200001220948FFF7CCFC5CE700BF9C6A0020E1
:109530000070024000ED00E000E100E050700240E9
:109540000470024028700240119202004A06064B45
:109550000BBF012241F480715A65C3F81815BFF39F
:109560006F8FBFF34F8F7047007002404B060AD0D9
:10957000054B41F48072C3F81815C3F80C25BFF3EE
:109580006F8FBFF34F8F7047007002402DE9F04F8F
:10959000B04BB14ED3F80043002387B01D469C4624
:1095A000012000FA03F19A190C424FEA820208D016
:1095B000176837B10D43C2F800C0BFF36F8FBFF318
:1095C0004F8F0133192BECD1EE0700F19182AC02E1
:1095D00000F1888268020CD59E4ED6F8004404F44F
:1095E0004073E105C6F8003400F1AF82A20500F136
:1095F000B7829A4B2B4053B1994B93F8C020002A65
:1096000040F0BD81974B1B68DB0700F1B2822F024F
:109610002BD5904BD3F88024D2B28DF81020D3F8FC
:109620008414C9B28DF81110D3F888048DF8120093
:10963000D3F88C048DF81300D3F890048DF814003F
:10964000D3F894048DF81500D3F898048DF816001B
:10965000D3F89C348DF81730560601D1052904D073
:10966000012204A90020FFF785FBEC0415D5794AF7
:109670007B4CD2F80837217ADBB200209942607225
:1096800040F08B81E388A188994240F286810123D2
:10969000D364BFF36F8FBFF34F8FA80417D56D4A04
:1096A0006F4CD2F81C3794F82000DBB200219842AE
:1096B00084F8211040F06781E38BA08B984240F240
:1096C0006281C2F8A414BFF36F8FBFF34F8F690498
:1096D00017D5604A624CD2F8303794F83800DBB2C4
:1096E0000021984284F8391040F08C81E38EA08EDE
:1096F000984240F28781C2F8A814BFF36F8FBFF37E
:109700004F8F2A0419D5534A554CD2F8443794F850
:109710005000DBB20021984284F8511040F064817F
:10972000B4F84E30B4F84C00984240F25D81C2F873
:10973000AC14BFF36F8FBFF34F8FEB0319D5454ABE
:10974000474CD2F8583794F86800DBB200219842B1
:1097500084F8691040F06F81B4F86630B4F86400A2
:10976000984240F26881C2F8B014BFF36F8FBFF324
:109770004F8FAF0319D5374A394CD2F86C3794F86C
:109780008000DBB20021984284F8811040F04581CE
:10979000B4F87E30B4F87C00984240F23E81C2F8C2
:1097A000B414BFF36F8FBFF34F8F6E0319D5294ADF
:1097B0002B4CD2F8803794F89800DBB20021984205
:1097C00084F8991040F00281B4F89630B4F894000F
:1097D000984240F2FB80C2F8B814BFF36F8FBFF31A
:1097E0004F8F2C0319D51B4A1D4CD2F8943794F88F
:1097F000B000DBB20021984284F8B11040F0D8806C
:10980000B4F8AE30B4F8AC00984240F2D180C2F85F
:10981000BC14BFF36F8FBFF34F8F134B2B40002B44
:1098200000F09D800B4BD3F86C94C3F86C94BFF39D
:109830006F8FBFF34F8F15F4806540F09380CDE9B3
:109840000255074FDFF80CA0DFF820B03C463E463B
:10985000002515E000700240409C0010FCFB1F003A
:109860009C6A0020F0ED00E000040001019C001063
:10987000002D00F09181B8F1070F4CD0013518365A
:109880000123AB4013EA090F5FFA85F8F0D005EB2E
:10989000850205EB450304EBC3030AEB8202D2F811
:1098A0000416588A014489B25982588A318A814201
:1098B00040F2CF805B8A307DC91A89B2F368C2F862
:1098C0000036814228BF01460B44C2F80416F360FB
:1098D00094F8C03005EB0B0189006BB1B14B5B68AC
:1098E000C3F30803002B40F04681EFF31083002BF5
:1098F00000F0218194F8C03094F8C0300133DBB21D
:10990000012284F8C0300A60BFF36F8FBFF34F8F1E
:10991000B8F1070FB2D1DFF894A2DFF89CB2A14BE7
:10992000002507E0002D00F03281EAB2072A16D0A8
:109930000135183705F1100101228A4012EA090F9A
:10994000F0D06E00721904EBC202B888D188884248
:1099500000F2898001215172EAB2072AE8D107B0EA
:10996000BDE8F08FD3F88024D3F8803483F08003EF
:10997000C3F3C0130293C2F3C013039361E7002241
:1099800083F8C02043E6E38BA38301210023E28B0D
:1099900000911846FFF71CFA99E6E388A38001219D
:1099A0000023E288009118461946FFF711FA74E681
:1099B000B4F8AE30A4F8AC3001210023B4F8AE20E6
:1099C000009118460721FFF703FA26E7B4F896300E
:1099D000A4F8943001210023B4F896200091184691
:1099E0000621FFF7F5F9FCE6B4F84E30A4F84C3048
:1099F00001210023B4F84E20009118460321FFF7FF
:109A0000E7F99AE6E38EA38601210023E28E009116
:109A100018460221FFF7DCF973E6B4F87E30A4F8AB
:109A20007C3001210023B4F87E20009118460521E6
:109A3000FFF7CEF9B9E6B4F86630A4F86430012136
:109A40000023B4F86620009118460421FFF7C0F9FE
:109A50008FE65A8A012100230091184648F08001C0
:109A6000FFF7B6F907E705F5947105EB85025AF89B
:109A7000210039680AEB82025FFA80F8C2F8001709
:109A8000C2F8048794F8C02005EB0B01890082B16D
:109A90005A68C2F30802002A72D1EFF31082002A3A
:109AA00064D1414A5268120660D594F8C020002A59
:109AB000FBD194F8C0200132D2B2012084F8C0203A
:109AC0000860BFF36F8FBFF34F8F3A682E44424454
:109AD00004EBC6063A60F28890441FFA88F8A6F8AC
:109AE000068022E7012203210020FFF7DDF871E55F
:109AF0002E4B2F4E00245C6021469C6230469C60B9
:109B0000C422DC62DC601C631C615C635C619C637E
:109B10009C61DC63DC611C641C625C645C629C6450
:109B200004F0F4FB402301222046114633753372C2
:109B3000FFF7BAF84BE51C4B5B6818067FF5DAAE09
:109B400094F8C030002BFBD1D6E60122042100207E
:109B5000FFF7AAF80123A205C6F82C357FF549AD19
:109B6000012205210020FFF79FF842E594F8C0206C
:109B70009FE700BE4BE501220E48FFF7A1F97AE608
:109B800001220C480393FFF79BF9039B9DE7029A80
:109B9000002A3FF4CDAED4E6039B002B3FF46EAE1B
:109BA00075E600BF00ED00E000E100E0007002405B
:109BB0009C6A0020119202000A9C001030B5012816
:109BC00083B000F0968052D302283CD1B14BD3F839
:109BD0000435002B40F0C680AE4AD2F800341C0594
:109BE000FBD54FF40063C2F80034BFF36F8FBFF3AF
:109BF0004F8FA94AA94B12681B68082A00F0C6803B
:109C0000A449A74AA7488023C1F81C35C1F804031A
:109C1000C2F884315360A44D43F204044FF08043F2
:109C20002268AA4211D0D3F80C14D3F80C24D00324
:109C3000F6D5CA07F4D5974B0122C3F80425BFF324
:109C40006F8FBFF34F8F03B030BD02AA002102F81F
:109C5000041D1046FFF7DAFA9DF804100029E2D03F
:109C60001046FFF7D1FA019A002AD9D0E3E7894BD1
:109C7000D3F80025002AE6D14FF40062C3F800248F
:109C8000BFF36F8FBFF34F8F834B1B68082B00F020
:109C9000AC80804B0122C3F80025BFF36F8FBFF368
:109CA0004F8F43F2040203F18D5303F577231268BB
:109CB00003F2DB539A4200F0BF804FF08043D3F8A9
:109CC0000C24D3F80C34D90301D5D207BBD443F20A
:109CD0000402754B12689A4200F00C81734B00220B
:109CE0001A601B6801934FF08043012201991A60AA
:109CF000A9E7684BD3F80025002AA4D00022C3F8B6
:109D00000425BFF36F8FBFF34F8F65498020C1F8E3
:109D10008400BFF34F8FBFF36F8FD3F80013C3F8E6
:109D20000813C3F80025BFF36F8FBFF34F8F43F2C3
:109D3000040103F18D5303F57723096803F2DB5324
:109D4000994200F08D805A4B01221A60594B5A6893
:109D5000C2F30802003218BF012202210020FEF7E0
:109D6000A3FF70E743F204024F4B12689A4200F0DF
:109D7000AD804FF08043D3F80C24D3F80C34DB03D0
:109D80007FF52AAFD5077FF527AF5CE7032B09D80E
:109D9000494A1168002978D1484C49F27530106061
:109DA000216010605A1E022A10D8434A1168002907
:109DB00063D1434D3848394B00681B6849F275340C
:109DC00014602960146008287FF41AAF032B3FF653
:109DD00017AF3C493C4B40F2E370402208601A60E8
:109DE000BFF36F8FBFF34F8F0AE72C4B1B685A1ED0
:109DF000022A12D8304B1A68002A40F08D80304970
:109E000049F2753203201A6008601A60224A234B17
:109E100012681B68082A7FF43CAF032B3FF639AF6A
:109E2000254B1A68002A73D1244949F27532C020A3
:109E30001A6008601A602CE702AB002203F8042DB8
:109E40001846FFF7E3F99DF80420002A3FF435AFE8
:109E50001846FFF7D9F9019B002B7FF4F4AE36E7E3
:109E600002A800F8042DFFF7D1F99DF80430002B6B
:109E70003FF469AFFFF7C6F968E70749074B104A97
:109E800008681B68002111609DE70C4A00211160E1
:109E900088E700BF0070024030010010340100105C
:109EA00000E100E005148001DBE5B1510001004054
:109EB0000400004000ED00E000EC064014EC064019
:109EC00014ED0640007802400478024002AB002204
:109ED00003F8042D1846FFF799F99DF80420002A8D
:109EE0003FF447AF1846FFF78FF9019B002B7FF433
:109EF000AAAE71E602A8002300F8043DFFF786F938
:109F00009DF80430002B3FF4E9AEFFF779F99AE6AB
:109F1000034BC0221A60BCE6024B03221A6075E7AD
:109F200014EC064014ED064038B5094D2C780CB100
:109F3000204638BDFEF7F8FA28B9064B1B68DB0748
:109F4000F6D500BEF4E701232B70204638BD00BFD4
:109F5000606B0020F0ED00E0014B1878704700BF07
:109F6000606B002000B51849184883B002F086FDE8
:109F700048F2290242F29A31144802F0C9FD13480E
:109F800002F0CAFD124A40214FF0804302A882F835
:109F900027130024D3F8385400F8084D02F090F944
:109FA00002A80C4B40F8043D02F0B6F902F0C6F9E5
:109FB000EB0704D4FFF7B8FFFEF7F0FAFCE7204602
:109FC000FFF7FCFDF6E700BFF465002050750020A8
:109FD00000E100E0BD9B02000020FFF7D7BA00BF00
:109FE00000B5002383B00322CDE9002303490448D0
:109FF000C82201F023F803B05DF804FB70060300EB
:10A00000659F020008B5052000F050F8BDE8084043
:10A0100002F0DCBB30B54FF0805387B00C465A6E6F
:10A020001B491B6E01A804F08DFE9DF804309DF8BD
:10A0300005509DF806009DF807109DF80820238024
:10A040009DF809306580A0809DF80A509DF80B00AE
:10A05000E18022819DF80C109DF80D2063819DF810
:10A060000E30A581E0819DF80F509DF810002182EF
:10A0700062829DF811109DF81220A3829DF8133082
:10A0800020831020E5826183A283E38307B030BD83
:10A090007806030008B501F0B9F84FF47A72A0FB16
:10A0A0000223900A40EA835008BD00BF38B50B4B2D
:10A0B0008402A3FB043401F0A9F805460020FDF753
:10A0C0007BFE01F0A3F8A409401B844200D838BDF0
:10A0D000201ABDE8384001F0BDB900BFD34D621071
:10A0E00038B51C469DF8105043B3002908BF1A46E6
:10A0F0000123C4E90F01226084F8463001F0CEFE4E
:10A10000D4E90F132268A26001FB03F1CB1A1344B8
:10A1100000200A44FF21A063E36084F844106260D9
:10A1200084F8451004F1100003F024FC04F124002D
:10A1300003F020FC01F0BCFE84F84C50204638BDF2
:10A14000F8B5074615460E4669B100FB01F05030E0
:10A1500003F05EFC044690B3002200F1500380F847
:10A160004620036007E0502003F052FC044630B361
:10A1700084F846602460C4E90F7601F08FFED4E9CC
:10A180000F132268A26001FB03F1CB1A13440020D5
:10A190000A44FF21A063E36084F84410626084F8FD
:10A1A000451004F1100003F0E5FB04F1240003F076
:10A1B000E1FB01F07DFE84F84C502046F8BD002400
:10A1C0002046F8BD2DE9F04F044685B01D460192AA
:10A1D000884601F063FEA26BE36BA84F4FF00009C5
:10A1E0009A424E46C0F08B80022D00F00681019805
:10A1F000002800F03081B9F1000F00F0958001F0E7
:10A2000057FE00F0FBFF01F049FE94F84430FF2BAD
:10A2100008BF84F8446094F84530FF2B08BF84F8E9
:10A22000456001F045FE01A902A801F015FB0028D8
:10A2300040F0188101F032FEA26BE36B9A4277D0B6
:10A2400001F036FE01F02AFE94F845304FFA83FA09
:10A25000BAF1000F1ADD636AC3B104F1240907E003
:10A260000AF1FF33DBB24FFA83FA7BB1636A6BB159
:10A27000484601F097FA0028F2D001F025FB0AF1D8
:10A28000FF33DBB24FFA83FA002BEFD1FF2384F8C0
:10A29000453001F00DFE01F001FE94F844304FFA14
:10A2A00083FABAF1000F1ADD2369C3B104F1100972
:10A2B00007E00AF1FF33DBB24FFA83FA7BB123697F
:10A2C0006BB1484601F06EFA0028F2D001F0FCFABA
:10A2D0000AF1FF33DBB24FFA83FA002BEFD1FF23F1
:10A2E00084F8443001F0E4FD01F02EF801F0D6FDD1
:10A2F000A26BE36B9A424FF00109BFF475AF226C79
:10A30000A66B002A40F0FC8025680136002D00F085
:10A310001881A663636A002B40F08C8001F0C8FDB1
:10A32000012005B0BDE8F08F02A801F089FA66E7C8
:10A3300004F1100901F0BCFD4846019901F0B6F99D
:10A3400001F0ACFD94F845A04FFA8AFABAF1000F7B
:10A350001CDD636AD3B104F1240B08E00AF1FF3A73
:10A360005FFA8AF34FFA83FA83B1636A73B158468E
:10A3700001F018FA0028F1D00AF1FF3A01F0A4FA2E
:10A380005FFA8AF34FFA83FA002BEED1FF2384F8A9
:10A39000453001F08DFD01F081FD94F844304FFA15
:10A3A00083FABAF1000F06DC15E00AF1FF33DBB2E5
:10A3B0004FFA83FA7BB123696BB1484601F0F2F999
:10A3C0000028F2D001F080FA0AF1FF33DBB24FFA35
:10A3D00083FA002BEFD1FF2384F8443001F068FDAD
:10A3E00000F0B2FF002881D14FF080537B6040BF66
:10A3F000BFF34F8FBFF36F8F78E7226CA66B002AF5
:10A4000082D04146E06803F05DFF236CE26821687A
:10A410005B421A448A42E26080F089806268134499
:10A42000E360022D00F083800136A663636A002B8F
:10A430003FF474AF04F1240001F0B4F900283FF4B4
:10A440006DAF0E4B4FF080525A6040BFBFF34F8F3D
:10A45000BFF36F8F62E7009001F02AFD009805B00E
:10A46000BDE8F08F01F01AFD94F845506DB2002D53
:10A4700018DD636AB3B104F1240607E000ED00E0E3
:10A48000013DEBB25DB26BB1636A5BB1304601F086
:10A4900089F90028F4D0013D01F016FAEBB25DB263
:10A4A000002BF1D1FF2384F8453001F001FD01F0CC
:10A4B000F5FC94F844506DB2002D16DD2369A3B16C
:10A4C00004F1100605E0013DEBB25DB26BB123690A
:10A4D0005BB1304601F066F90028F4D0013D01F08F
:10A4E000F3F9EBB25DB2002BF1D1FF2384F84430D5
:10A4F00001F0DEFC00F028FF002005B0BDE8F08F81
:10A5000041465DBBA06803F0DDFEA368216C626874
:10A510000B44934206F10106A360FFF4FAAEA66372
:10A52000636A2268A260002B3FF4F8AE82E7002E37
:10A530007FF4EFAE0123A363636A002B3FF4EEAE1A
:10A5400078E7606801F032FAA663636A6560002B01
:10A550007FF470AF00287FF474AFDFE6E06803F0AB
:10A56000B1FE236CE26821685B421A448A42E260D1
:10A57000BFF457AF52E700BFF8B50C4679B30025DA
:10A580000123216081F84630C1E90F35064601F00C
:10A5900085FCD4E90F322168A56303FB02F39A1A04
:10A5A0000A440B44FF27C4E90131E26084F8447097
:10A5B00004F1100084F8457003F0DCF904F1240084
:10A5C00003F0D8F901F074FCC4E90055E56084F8A3
:10A5D0004C602B462A4629462046FFF7F3FD2046CD
:10A5E000F8BD00BF2DE9F0418C4682B00446174605
:10A5F000EFF31186402282F31188806BE26B904268
:10A6000021D3022B05D0002086F3118802B0BDE8CB
:10A61000F08194F84550226CD4F838806DB252BB6A
:10A62000236808F10108002B4FD06B1CC4F8388058
:10A6300037D001356DB284F84550012086F311887A
:10A6400002B0BDE8F08194F84550226CD4F838800F
:10A650006DB2002AE4D073B9A06803F033FEA3689A
:10A66000216C62680B44934208F10108A360DCD3BB
:10A670002368A360D9E76146E068019303F022FEF6
:10A68000206CE2682168019B404202448A42E260F9
:10A6900002D262681044E060022B10D008F1010879
:10A6A000C3E7636A002BC8D004F1240001F07AF8F4
:10A6B0000028C2D0002FC0D001203860A4E7B8F134
:10A6C000000F08BF4FF00108AFE76068019301F089
:10A6D0006DF9019B6360A8E72DE9F047044684B05B
:10A6E0008846019201F0DAFBD4F83890B9F1000FF6
:10A6F00040F09380019B002B00F00A8102A801F03A
:10A700009FF8B34F4E4604F1240501F0D1FB00F051
:10A7100075FD01F0C3FB94F84430FF2B08BF84F8AB
:10A72000446094F84530FF2B08BF84F8456001F081
:10A73000BFFB01A902A801F08FF8002840F0878034
:10A7400001F0ACFBA36B002B40F0E88001F0B0FB04
:10A750000199284600F0AAFF01F0A0FB94F84530CB
:10A760004FFA83F9B9F1000F06DC15E009F1FF3368
:10A77000DBB24FFA83F97BB1636A6BB1284601F013
:10A7800011F80028F2D001F09FF809F1FF33DBB295
:10A790004FFA83F9002BEFD1FF2384F8453001F005
:10A7A00087FB01F07BFB94F844304FFA83FABAF14F
:10A7B000000F1ADD2369C3B104F1100907E00AF1A3
:10A7C000FF33DBB24FFA83FA7BB123696BB14846A2
:10A7D00000F0E8FF0028F2D001F076F80AF1FF332C
:10A7E000DBB24FFA83FA002BEFD1FF2384F8443019
:10A7F00001F05EFB00F0A8FD00287ED14FF08053F1
:10A800007B6040BFBFF34F8FBFF36F8F01F046FBFC
:10A81000D4F83890B9F1000F76D0226C52B1E168CB
:10A82000636811449942E16024BF2168E1604046B9
:10A8300003F048FD09F1FF33A3632369002B40F0C7
:10A84000C98001F035FB012004B0BDE8F08701F0BC
:10A8500025FB94F845304FFA83F9B9F1000F06DC77
:10A8600015E009F1FF33DBB24FFA83F97BB1636A7C
:10A870006BB1284600F096FF0028F2D001F024F8D2
:10A8800009F1FF33DBB24FFA83F9002BEFD1FF233D
:10A8900084F8453001F00CFB01F000FB94F84430E3
:10A8A0004FFA83FABAF1000F1ADD2369C3B104F13C
:10A8B000100907E00AF1FF33DBB24FFA83FA7BB1EC
:10A8C00023696BB1484600F06DFF0028F2D000F01C
:10A8D000FBFF0AF1FF33DBB24FFA83FA002BEFD113
:10A8E000FF2384F8443001F0E3FA00F02DFD01F07D
:10A8F000D5FAA36B63B101F0DBFA01F0CFFAD4F81B
:10A900003890B9F1000F88D1019B002B7FF4FDAE88
:10A9100001F0CEFA002004B0BDE8F08701F0C8FADB
:10A9200001F0BCFA94F845304FFA83F9B9F1000F01
:10A9300006DC15E009F1FF33DBB24FFA83F97BB196
:10A94000636A6BB1284600F02DFF0028F2D000F0BA
:10A95000BBFF09F1FF33DBB24FFA83F9002BEFD1D4
:10A96000FF2384F8453001F0A3FA01F097FA94F838
:10A9700044304FFA83FABAF1000F1ADD2369C3B1EC
:10A9800004F1100907E00AF1FF33DBB24FFA83FA52
:10A990007BB123696BB1484600F004FF0028F2D078
:10A9A00000F092FF0AF1FF33DBB24FFA83FA002B7B
:10A9B000EFD1FF2384F8443001F07AFA00F0C4FCB0
:10A9C00001F06CFAD4F83890B9F1000F9CD024E76C
:10A9D00000ED00E004F1100000F0E4FE00283FF478
:10A9E00030AF054B4FF080525A6040BFBFF34F8FDE
:10A9F000BFF36F8F25E700BF00ED00E02DE9F043C6
:10AA0000044685B00026019101F048FAA36BB24FCD
:10AA1000B0463546002B40F0F380019B002B00F040
:10AA20005D81B8F1000F00F0FC8001F041FA00F008
:10AA3000E5FB01F033FA94F84430FF2B08BF84F8AB
:10AA4000445094F84530FF2B08BF84F8455001F07E
:10AA50002FFA01A902A800F0FFFE00286CD101F036
:10AA60001DFAA36B002B40F0E08001F021FA23686F
:10AA7000002B00F03C8104F124094846019900F0C4
:10AA800015FE01F00BFA94F845304FFA83F8B8F14F
:10AA9000000F06DC15E008F1FF33DBB24FFA83F854
:10AAA0007BB1636A6BB1484600F07CFE0028F2D0AF
:10AAB00000F00AFF08F1FF33DBB24FFA83F8002BF6
:10AAC000EFD1FF2384F8453001F0F2F901F0E6F907
:10AAD00094F844304FFA83F8B8F1000F1ADD236977
:10AAE000C3B104F1100907E008F1FF33DBB24FFAFC
:10AAF00083F87BB123696BB1484600F053FE002810
:10AB0000F2D000F0E1FE08F1FF33DBB24FFA83F838
:10AB1000002BEFD1FF2384F8443001F0C9F900F095
:10AB200013FC002864D14FF080537B6040BFBFF31B
:10AB30004F8FBFF36F8F5BE001F0B0F994F84530B1
:10AB40004FFA83F8B8F1000F1ADD636AC3B104F15C
:10AB5000240907E008F1FF33DBB24FFA83F87BB139
:10AB6000636A6BB1484600F01DFE0028F2D000F089
:10AB7000ABFE08F1FF33DBB24FFA83F8002BEFD1C5
:10AB8000FF2384F8453001F093F901F087F994F838
:10AB900044304FFA83F8B8F1000F1ADD2369C3B1CE
:10ABA00004F1100907E008F1FF33DBB24FFA83F834
:10ABB0007BB123696BB1484600F0F4FD0028F2D068
:10ABC00000F082FE08F1FF33DBB24FFA83F8002B6E
:10ABD000EFD1FF2384F8443001F06AF900F0B4FBB0
:10ABE00001F05CF9A36B002B00F08A8001F060F9A2
:10ABF00001F054F9A36B4FF00108002B3FF40DAFA7
:10AC00002268013BA363002A00F09E802369002B89
:10AC100040F0898001F04CF90126304605B0BDE8CE
:10AC2000F08302A800F00CFEFFE601F041F901F00C
:10AC300035F994F845304FFA83F8B8F1000F1ADD72
:10AC4000636AC3B104F1240907E008F1FF33DBB202
:10AC50004FFA83F87BB1636A6BB1484600F0A2FDFE
:10AC60000028F2D000F030FE08F1FF33DBB24FFADB
:10AC700083F8002BEFD1FF2384F8453001F018F959
:10AC800001F00CF994F844304FFA83F8B8F1000F52
:10AC90001ADD2369C3B104F1100907E008F1FF339D
:10ACA000DBB24FFA83F87BB123696BB1484600F001
:10ACB00079FD0028F2D000F007FE08F1FF33DBB287
:10ACC0004FFA83F8002BEFD1FF2384F8443001F0D2
:10ACD000EFF800F039FB8BE700ED00E0009301F0A6
:10ACE000E7F8009B1E46304605B0BDE8F08301F052
:10ACF000D5F8606800F018FE064601F0D9F8BAE60B
:10AD000001F0D6F8002E88D001F0C8F8616A19B1B8
:10AD1000236B1968C1F10501606800F073FE00261D
:10AD200001F0C6F879E704F1100000F03BFD0028BF
:10AD30003FF470AF064B4FF080525A6040BFBFF3F4
:10AD40004F8FBFF36F8F65E700F092FE60605DE7A5
:10AD500000ED00E0074B1A681AB19A6802B170471B
:10AD6000012210B403EBC20443F8321060605DF8B6
:10AD7000044B7047647B002070B505460C461646B0
:10AD800001F08CF895F84430FF2B04BF002385F8C0
:10AD9000443095F84530FF2B04BF002385F845303B
:10ADA00001F086F8AB6B2BB93246214605F1240041
:10ADB00000F0B8FC01F072F895F8454064B2002C40
:10ADC00016DD6B6AA3B105F1240605E0013CE3B290
:10ADD0005CB26BB16B6A5BB1304600F0E3FC0028FB
:10ADE000F4D0013C00F070FDE3B25CB2002BF1D175
:10ADF000FF2385F8453001F05BF801F04FF895F836
:10AE0000444064B2002C16DD2B69A3B105F1100695
:10AE100005E0013CE3B25CB26BB12B695BB130463B
:10AE200000F0C0FC0028F4D0013C00F04DFDE3B27E
:10AE30005CB2002BF1D1FF2385F84430BDE87040AF
:10AE400001F036B82DE9F041044601F027F8344A04
:10AE5000344D1368013313602B68002B2FD0324E12
:10AE6000E36A32682AB33148314907680A689F4269
:10AE700038BF03602F48013203EB83030A6000EB05
:10AE80008300E263211D02F085FD01F011F83368B3
:10AE90006BB12A68E36AD26A9A4208D2264B4FF015
:10AEA00080525A6040BFBFF34F8FBFF36F8FBDE832
:10AEB000F0812A68D26A9A4298BF2C60D3E72C604E
:10AEC0001368012B02D0E36A174ECCE71948DFF86C
:10AED00094801A4F144E02F04DFD194802F04AFDBD
:10AEE000184802F047FD184802F044FD174802F0E8
:10AEF00041FD404602F03EFD384602F03BFD14485D
:10AF000002F038FD134802F035FD134802F032FD1F
:10AF1000124B134AC2F800801F60E36AA3E700BF28
:10AF2000D46B0020646B0020346C0020E86B0020A0
:10AF3000E46B0020706B002000ED00E0006C00204E
:10AF4000846B0020986B0020AC6B0020C06B00204D
:10AF5000206C00204C6C0020386C00206C6B0020B2
:10AF6000686B0020EC6B00202DE9F843DDE90964F3
:10AF7000002C60D016B93046BDE8F8830D46970026
:10AF8000984602233A4684F851308146266330467B
:10AF9000A52103F0BBF92A78236B84F83420043F01
:10AFA0002A781F4427F0070702B36B7884F83530FE
:10AFB0006B78DBB1AB7884F83630AB78B3B1EB7833
:10AFC00084F83730EB788BB12B7984F838302B79D3
:10AFD00063B16B7984F839306B793BB1AB7984F824
:10AFE0003A30AB7913B1EB7984F83B30089D042DEE
:10AFF00028BF04250026E5626564201D84F83B60B7
:10B00000A66402F0C3FCC5F1050504F1180002F0C6
:10B01000BDFCE66442464946A561246184F850605F
:10B020006462384600F0FEFE20602046FFF70AFF0B
:10B030002046BDE8F8832046BDE8F8832DE9F047B7
:10B040009600804630460D469946099F02F0E0FC86
:10B05000002869D08246542002F0DAFC0446002819
:10B060005BD00023C0F830A03246504684F85130FF
:10B07000A52103F04BF92A78236B84F83420043E91
:10B080002A781E4426F0070A02B36B7884F835301C
:10B090006B78DBB1AB7884F83630AB78B3B1EB7852
:10B0A00084F83730EB788BB12B7984F838302B79F2
:10B0B00063B16B7984F839306B793BB1AB7984F843
:10B0C0003A30AB7913B1EB7984F83B30089D042D0D
:10B0D00028BF04250026E5626564201D84F83B60D6
:10B0E000A66402F053FCC5F1050504F1180002F056
:10B0F0004DFCE664A561246184F8506064624A46B0
:10B100004146504600F08EFE206007B13C6020466C
:10B11000FFF798FE0120BDE8F087504602F08AFC58
:10B120004FF0FF30BDE8F0874FF0FF30F3E700BF8E
:10B1300070B584B0002503AA02A901A8CDE9015584
:10B1400001F06CFA019C002C46D00298002843D0F4
:10B15000039E20630223B600A521324684F85130B5
:10B1600003F0D4F8236B1F4A6263201D84F8385023
:10B17000043E84F83B50E562C4E911551E4402F0D8
:10B1800005FC04F1180002F001FC26F00706052377
:10B19000A3612A461449E56430462461646284F858
:10B1A000505000F03FFE20602046FFF74BFE0F4B53
:10B1B0001C6000F0DBFD012811D1402383F31188CE
:10B1C0000B490C4A0C4B4FF0FF340C6010601D60B3
:10B1D00000F03EFE04B070BD044B00221A6004B0C3
:10B1E00070BD00BF49444C45D9B40200146C002026
:10B1F000186C0020346C0020606C0020024A136838
:10B2000001331360704700BFE06B0020014B1868EA
:10B21000704700BF606C0020024A13681844106039
:10B22000704700BF606C00202DE9F04F3B4B1B685E
:10B2300083B0002B42D13A4B1F6801371F60002FAB
:10B240004AD0384B01931B68BB423BD8364EDFF8DF
:10B25000EC80DFF8ECA0DFF8EC90002525E0336807
:10B26000DB68DC68636804F1040B9F42584651D3E5
:10B2700002F0BAFBA36A04F118000BB102F0B4FBB0
:10B28000E36AD8F8002003EB8300934259460AEBA7
:10B29000800088BFC8F8003002F07CFBD9F800308D
:10B2A000E26ADB6A9A4228BF012533681B68002BDB
:10B2B000D5D1019A4FF0FF33136004E01B4A1368A5
:10B2C0000133136000251A4B1B68002B0CBF284666
:10B2D000012003B0BDE8F08F134E164B3168164ABB
:10B2E00018683060196013680133136033681B6895
:10B2F0003BB90C4B01931A464FF0FF3313601346D2
:10B30000A1E73368074ADB680192DB685B6813607A
:10B31000134698E7019A1360D5E700BFE06B002061
:10B32000606C0020186C0020686B0020DC6B002033
:10B33000646C00206C6B00201C6C0020E86B00200B
:10B34000706B0020646B00202DE9F04700F0A6FD33
:10B35000354B1A68013A1A601C68002C57D1334BE0
:10B360001B68002B53D0DFF8E0A0314E314FDFF8DF
:10B37000DC90DFF8DC80336813B3F368DC68251DEC
:10B3800004F1180002F030FB284602F02DFBE36ABE
:10B390003A6803EB83009342294609EB800088BF9B
:10B3A0003B6002F0F7FAD8F80030E26ADB6A9A42B2
:10B3B0004FF00103DFD3CAF800303368002BDCD133
:10B3C0003CB11D4B1A6812683ABB1C4B4FF0FF3260
:10B3D0001A601B4D2C6844B10126FFF725FF08B108
:10B3E000CAF80060013CF8D12C60DAF8003073B183
:10B3F000144B4FF080525A6040BFBFF34F8FBFF3E2
:10B400006F8F012400F054FD2046BDE8F087002432
:10B4100000F04EFD2046BDE8F0871A68074BD26861
:10B42000D26852681A60D4E7E06B0020D46B002029
:10B43000206C0020E86B0020686B0020186C002056
:10B44000DC6B002000ED00E0646C0020706B0020DD
:10B45000646B002070B548B9184B4FF080525A60A9
:10B4600040BFBFF34F8FBFF36F8F70BD144A1549B4
:10B470001368154E013313600D68044630680430BC
:10B4800002F0B2FA336864195C600FD20F4B18688F
:10B490003168043102F08EFA0D4B1A68944238BFBD
:10B4A0001C60FFF751FF0028D6D070BD094B18680B
:10B4B0003168043102F07EFAF3E700BF00ED00E0EE
:10B4C000E06B0020606C0020646B0020686B002043
:10B4D000186C00206C6B00202DE9F84F3C4E3D4D60
:10B4E0003D4CDFF80891DFF80881DFF808B14FF034
:10B4F000805A2368D3B100F0D1FCF368DF68381DAF
:10B5000002F072FA2B68013B2B602368013B236039
:10B5100000F0CEFC97F85130002B37D0012BE8D14A
:10B52000384602F087FA2368002BE4D12B4B1B68C6
:10B53000012B06D9CBF804A040BFBFF34F8FBFF358
:10B540006F8F00F03DFED9F8003033BBD8F80030E3
:10B55000DB6A002BCDD1214B1B68012BC9D8204BB6
:10B56000204A1B6812689B1A012BC2D91E4A136815
:10B5700001331360D9F80030BBB1D8F80030DB6A72
:10B580000BB9164B1B68FFF7DFFEB2E7386B02F012
:10B5900051FA384602F04EFAABE7D8F80030DB6AD1
:10B5A000002BA6D10D4B1B68A3E7D8F80030DB6A4F
:10B5B000002BE8D1094B1B68012BE4D8084B186815
:10B5C000084B1B68C01A0128DDD900F0DDFCDAE762
:10B5D0004C6C0020D46B0020D86B0020706B0020D6
:10B5E000186C0020606C0020E06B0020E86B0020ED
:10B5F000646B002000ED00E0274B1B68002B40D15E
:10B60000264A70B5264C13602268236812681B6BAB
:10B610009A423AD9234D24492A6893009818800009
:10B620000858E0B9561EB30098198000085830BB7E
:10B63000961EB30098198000085800BBD61EB300B0
:10B64000981980000858D0B9161FB30098198000C7
:10B650000858A0B9053A9300981880000858134478
:10B660009B00CE1808337068406870600B449842A5
:10B6700004BF40687060C36823602A6070BD3246B2
:10B68000EDE7064B01221A607047206821683431CB
:10B6900000F0C0FFBEE700BFE06B0020646C00203C
:10B6A000646B0020E86B0020706B002070B5174DB4
:10B6B0002B680C4603F1180102F07CF9144B1E684C
:10B6C0002868043002F090F9631C17D02B68A41985
:10B6D0005C600BD20F4B18682968043102F06AF9DC
:10B6E0000D4B1A68944238BF1C6070BD0B4B186834
:10B6F0002968BDE87040043102F05CB92968084847
:10B700000431BDE8704002F045B900BF646B002011
:10B71000606C0020686B0020186C00206C6B0020AF
:10B72000386C002070B5194D2B680C46164603F195
:10B73000180102F02FF9164B5EB11B68286804301F
:10B7400002F052F9296813480431BDE8704002F054
:10B7500021B91E682868043002F046F92B68A41944
:10B760005C600BD20C4B18682968043102F022F996
:10B770000A4B1A68944238BF1C6070BD084B1868A9
:10B780002968BDE87040043102F014B9646B0020F0
:10B79000606C0020386C0020686B0020186C002062
:10B7A0006C6B002038B5C368DC6804F118052846C6
:10B7B00002F01AF91A4B1B682BBB251D284602F014
:10B7C00013F9184AE36A116817488B4288BF13605F
:10B7D00003EB8303294600EB830002F0DBF8134BF5
:10B7E000E26A1B68DB6A9A4282BF114B0120186033
:10B7F000104B1A68126898BF00204AB90E4B4FF0E0
:10B80000FF321A6038BD29460C4802F0C3F8E6E75B
:10B810001A68094BD268D26852681A6038BD00BFF6
:10B82000E06B0020E86B0020706B0020646B002050
:10B83000646C0020686B0020186C0020206C0020D5
:10B84000034A044B12681B68C0E90023704700BF1D
:10B850001C6C0020606C0020F8B50D46044600F01A
:10B860001DFB2B681649581C0A6813D0DFF854C01A
:10B87000D4E90060DCF80070BE4201D090421AD9D1
:10B88000121A93420BD800232B60012500F010FB05
:10B890002846F8BD002500F00BFB2846F8BDDCF873
:10B8A00000009B1A0A682B60C4E90002002500F022
:10B8B000FFFA2846F8BD012500F0FAFA2846F8BD3F
:10B8C000606C00201C6C0020014B01221A60704744
:10B8D000646C0020084B186860B9084B1B6853B9AA
:10B8E000074A084B10681B68013B984214BF0120AF
:10B8F0000220704700207047206C0020646C0020FC
:10B90000386C0020D46B0020054B1B6833B1054B0D
:10B910001B68002B0CBF02200020704701207047DD
:10B92000346C0020E06B002018B3F8B51C4CC36ADF
:10B930002268D26A934214D28269002A04DB226808
:10B94000D26AC2F105028261164D426903EB83039C
:10B9500005EB83039A420DD02368DB6AC3620120A2
:10B96000F8BD2368406CDB6A98422CBF00200120A0
:10B97000F8BD7047061D0746304602F035F82268CC
:10B98000094BD06A1A68F862904200D9186000EB3F
:10B99000800005EB8000314601F0FCFF0120F8BD7E
:10B9A000646B0020706B0020E86B002050B138B54C
:10B9B000C16A836C426C013B9142836400D01BB12D
:10B9C000002038BD00207047051D0446284602F0BF
:10B9D0000BF80A4A636C1168E362C3F105008B42FD
:10B9E000A061074888BF136003EB830300EB83006B
:10B9F000294601F0CFFF012038BD00BFE86B0020D1
:10BA0000706B002048B1426CC36A914238BF114646
:10BA10008B4202D0826C012A00D07047826970B5D7
:10BA2000114DC162002A03EB83034269A8BFC1F133
:10BA3000050105EB8303A8BF81619A4200D070BD68
:10BA4000061D0446304601F0CFFF084BE06A1A6835
:10BA5000904288BF186000EB800005EB8000314603
:10BA6000BDE8704001F096BF706B0020E86B0020CD
:10BA7000044B1A681AB119688A6C01328A64186812
:10BA8000704700BF646B00202DE9F04FAD4EDFF82A
:10BA9000C482AD4D89B033681C68002C00F08E80E4
:10BAA000DB681C68FFF7AAFBFFF7B0FBD8F8003093
:10BAB000984207465DD38442C8F8000040F20B81EB
:10BAC0000022E11B2868FFF757F9FFF73DFC88B912
:10BAD0009E4A4FF08053536040BFBFF34F8FBFF378
